:020000040800F2
:100000008808002039020008510500088104000812
:100010004D050008F5020008B716000800000000B2
:10002000000000000000000000000000A90A000815
:10003000F9020008000000005D0900089F0C00089C
:10004000530200085302000853020008530200083C
:10005000530200085302000853020008530200082C
:10006000530200085302000853020008530200081C
:10007000530200085302000853020008530200080C
:100080005302000853020008530200080000000059
:100090000000000000000000000000005302000803
:1000A00053020008FD0F000853020008090D000864
:1000B000530200085110000899100008530200086C
:1000C00053020008530200085302000853020008BC
:1000D00053020008091400089114000800000000F1
:1000E0002903000853020008530200080000000022
:1000F00000000000000000000000000053020008A3
:1001000000000000530200085912000853020008C2
:1001100000000000000000000000000000000000DF
:10012000530200085302000853020008530200085B
:100130005302000800000000000000000000000062
:100140000000000000000000000000005302000852
:10015000530200085302000853020008530200082B
:1001600053020008530200080000000000000000D5
:10017000000000000000000000000000000000007F
:100180000000000053020008000000000000000012
:10019000530200085302000800F002F800F03CF897
:1001A0000AA090E8000C82448344AAF10107DA45D2
:1001B00001D100F031F8AFF2090EBAE80F0013F0E8
:1001C000010F18BFFB1A43F00103184798200000E5
:1001D000B8200000103A24BF78C878C1FAD8520776
:1001E00024BF30C830C144BF04680C6070470000B1
:1001F0000023002400250026103A28BF78C1FBD830
:10020000520728BF30C148BF0B6070471FB501F0CF
:1002100017FC1FBD10B510BD00F036F81146FFF7F2
:10022000F5FF01F013FB00F054F803B4FFF7F2FF01
:1002300003BC00F059F8000009488047094800470E
:10024000FEE7FEE7FEE7FEE7FEE7FEE7FEE7FEE786
:10025000FEE7FEE704480549054A064B70470000E3
:10026000A10C0008990100088802002088080020DD
:100270008804002088040020704770477047000001
:1002800000487047280200207546FFF7F9FFAE4688
:1002900005006946534620F00700854618B020B592
:1002A000FFF7D8FFBDE820404FF000064FF00007F1
:1002B0004FF000084FF0000B21F00701AC46ACE80E
:1002C000C009ACE8C009ACE8C009ACE8C0098D467B
:1002D000704710B50446AFF300802046BDE81040DB
:1002E000FFF7A3BF7047000001491820ABBEFEE72F
:1002F0002600020000BFFEE770470000DFED070A9E
:10030000B0EE600A0648D0ED000AF8EEE00A9FED74
:10031000051AC0EE811AB0EE610A704700000000B5
:100320001C0000200000684210B5002000F0C0F85A
:1003300028B103480068C0430249C1F8940210BDC7
:100340009402404200004042F0B50A4600210023DA
:10035000002400BF3DE0012505FA01F3156805EA18
:1003600003049C4234D105684F000326BE40B543C8
:10037000056015794E00B54006683543056015796E
:10038000012D02D01579022D16D185684F00032664
:10039000BE40B543856055794E00B540866835430B
:1003A0008560456801268E40B5434560456896796D
:1003B0008E40B6B235434560C5684F000326BE4047
:1003C000B543C560D5794E00B540C6683543C560B4
:1003D000491C1029BFD3F0BDF0B5002300244D0700
:1003E000ED0E02FA05F3CE1000F1200555F8265067
:1003F0004E07F70E0F26BE40B543CF1000F1200682
:1004000046F82750CE1000F1200555F8265045EA51
:100410000304CE1000F1200545F82640F0BD024649
:10042000002013690B400BB1012000E00020704751
:1004300041837047018370471CB50121022000F001
:100440008FFA4FF48070009001208DF80400002096
:100450008DF8060002208DF8050069460748FFF771
:1004600073FF4FF40070009000208DF804008DF8A9
:10047000070069460148FFF767FF1CBD0004024002
:1004800000BFFEE71CB50121042000F069FA4FF41B
:100490000050009000208DF8040002208DF8070025
:1004A00069460248FFF750FF1CBD000000080240EB
:1004B00010B5044614B101201249087011480078A3
:1004C000A0B14FF400511048FFF7A9FFC04368B135
:1004D000042001F011F900200A4908704FF400517E
:1004E0000948FFF79CFF50B9012010BD4FF400519F
:1004F0000548FFF794FF10B1012002490870002061
:10050000F3E7000048000020000802401CB501216C
:10051000084600F025FA2020009001208DF8040004
:1005200000208DF8060003208DF8050001208DF8CD
:10053000070069460348FFF707FF002002490860EB
:100540001CBD0000000002409402404200BFFEE7D4
:100550007047000070B5002100230F22C4781CB33F
:10056000174C246804F4E064C4F5E064C4F3072184
:10057000C1F10404E3B20A4144789C40E1B28478BA
:10058000144021430C07210E0E4C05786155047868
:1005900004F01F050124AC4005786D11AD0005F194
:1005A000E025C5F8004109E0047804F01F050124A6
:1005B000AC40054D0678761145F8264070BD000028
:1005C0000CED00E000E400E080E100E002490143BE
:1005D000024A1160704700000000FA050CED00E0CF
:1005E00070B5002419E004F1B001C8B2002100F098
:1005F00083F90021084600F07FF90021102000F067
:100600007BF9002505E00121002000F075F9681C48
:10061000C5B2802DF7DB601CC4B2082CE3DB70BDD3
:1006200070B50646002419E004F1B001C8B20021FB
:1006300000F062F90021084600F05EF90021102068
:1006400000F05AF9002505E00121304600F054F988
:10065000681CC5B2802DF7DB601CC4B2082CE3DB3C
:1006600070BD000010B500F04BF84FF480612348D6
:10067000FFF7E0FE20212148FFF7DAFE322001F0EB
:100680003BF820211D48FFF7D5FE002000F059FA65
:10069000802000F040FA3F2000F06BFA002000F0CC
:1006A00045FA002000F083FA042000F009FA022045
:1006B00000F0FBF9012000F072FA082000F018FAAF
:1006C000102000F009FACF2000F01AFAF12000F013
:1006D0005BFA402000F0C4FA002000F03AFA002053
:1006E00000F03FFA012000F02CFA0020FFF798FFFD
:1006F0000021084600F08EF810BD00000004024002
:100700001CB50121022000F02BF94FF48760009006
:1007100001208DF8040000208DF8060002208DF8DD
:10072000050069460448FFF70FFE4FF48761024851
:10073000FFF780FE1CBD0000000402402DE9F05FC1
:1007400005468B461446002C06DA2D2259462846CB
:1007500000F076F8644204E02B225946284600F067
:100760006FF842F2107094FBF0F000F0FF0942F2D3
:10077000107094FBF0F100FB11404FF47A7190FB84
:10078000F1F000F0FF0A084694FBF0F100FB114085
:10079000642190FBF1F0C6B2642094FBF0F100FB01
:1007A00011400A2190FBF1F0C7B20A2094FBF0F14E
:1007B00000FB114000F0FF0809F13001CAB2A91D89
:1007C000C8B2594600F03CF80AF13001CAB205F14E
:1007D0000C01C8B2594600F033F806F13001CAB234
:1007E00005F11201C8B2594600F02AF807F13001AC
:1007F000CAB205F11801C8B2594600F021F808F153
:100800003001CAB205F11E01C8B2594600F018F80D
:10081000BDE8F09F70B504460D4605F1B001C8B2C1
:10082000002100F069F8102141EA1410002100F0C5
:1008300063F804F00F00002100F05EF870BD0000C6
:100840002DE9F04105460E4617464FF000080024FA
:10085000A7F1200000F0FF087A2D02DD0025701CB2
:10086000C6B231462846FFF7D5FF00240AE008EB60
:100870004801064A02EB4101085D012100F03CF805
:10088000601CC4B2062CF2DBBDE8F0814A1A0008F5
:100890002DE9F0470446884615464FF0000900262A
:1008A000002721E0E85D203800F0FF097E2C04DD00
:1008B000002408F1010000F0FF0841462046FFF740
:1008C000A9FF00260AE009EB49010A4A02EB4101AF
:1008D000885D012100F010F8701CC6B2062EF2DB14
:1008E000A01DC4B2781CC7B2E85D0028DAD1BDE80B
:1008F000F08700004A1A000870B504460E4626B17B
:1009000008211548FFF796FD03E008211248FFF77C
:100910008FFD002519E04FF480610F48FFF788FD37
:1009200004F0800020B110210B48FFF783FD03E0A5
:1009300010210948FFF77CFD4FF480610648FFF75E
:1009400079FD6006040E681CC5B2082DE3DB0821A2
:100950000148FFF76FFD70BD0004024070470000C2
:1009600029B1064A12680243044B1A6004E0034AA4
:1009700012688243014B1A60704700003038024011
:1009800029B1064A12680243044B1A6004E0034A84
:1009900012688243014B1A607047000040380240E1
:1009A00029B1064A12680243044B1A6004E0034A64
:1009B00012688243014B1A607047000044380240BD
:1009C000F0B5002100220024022500260223324F28
:1009D0003F6807F00C0121B1042905D0082937D15F
:1009E00005E02E4F076036E02D4F076033E02A4FB9
:1009F0003F1F3F68C7F38056274F3F1F3F6807F0F0
:100A00003F036EB1264FB7FBF3F7DFF88CC0ACF1B4
:100A1000040CDCF800C0CCF3881C07FB0CF40CE0E1
:100A20001E4FB7FBF3F7DFF870C0ACF1040CDCF835
:100A300000C0CCF3881C07FB0CF4174F3F1F3F6826
:100A4000C7F301477F1C7D00B4FBF5F7076002E0A8
:100A5000124F076000BF00BF0F4F3F6807F0F00163
:100A60000909104F7A5C0768D74047600A4F3F6812
:100A700007F4E051890A0B4F7A5C4768D7408760DA
:100A8000054F3F6807F46041490B064F7A5C4768A1
:100A9000D740C760F0BD0000083802400024F400D1
:100AA00040787D0100000020704710B50446002109
:100AB0002020FFF721FF00212046FFF71DFF10BD7A
:100AC00010B5044600218D20FFF716FF44F01000FA
:100AD0000021FFF711FF10BD10B504460021DA20F8
:100AE000FFF70AFF44F002000021FFF705FF10BDE9
:100AF00010B5044644F0C0000021FFF7FDFE10BD14
:100B000010B5044600218120FFF7F6FE00212046A3
:100B1000FFF7F2FE10BD10B504460021D520FFF707
:100B2000EBFE00212046FFF7E7FE10BD10B504469E
:100B30000021D320FFF7E0FE00212046FFF7DCFE76
:100B400010BD10B5044644F0AE000021FFF7D4FEFE
:100B500010BD10B5044644F0A4000021FFF7CCFE00
:100B600010BD10B5044644F0A6000021FFF7C4FEF6
:100B700010BD10B504460021A820FFF7BDFE0021DE
:100B80002046FFF7B9FE10BD10B504460021D9205C
:100B9000FFF7B2FE00212046FFF7AEFE10BD10B5F4
:100BA000044644F0A0000021FFF7A6FE10BD10B5DA
:100BB000044644F040000021FFF79EFE10BD0000F7
:100BC0002348006840F080502149086021480068AF
:100BD00040F440401F4908601D48383800681C49EF
:100BE000383908600846006840F40040086008464C
:100BF000006840F4A05008601748091F0860081FEB
:100C0000006840F08070091F086000BF104840383D
:100C1000006800F000700028F8D040F202700F4920
:100C200008600B483838006820F00300084938395C
:100C300008600846006840F00200086000BF0448F1
:100C40003838006800F00C000828F8D17047000020
:100C5000403802400070004010640107003C024030
:100C600010B504460021DB20FFF746FE0021204698
:100C7000FFF742FE10BD042808D14FF0E0210969BA
:100C800041F004014FF0E022116107E04FF0E02154
:100C9000096921F004014FF0E022116170477047AB
:100CA00010B51548006840F47000134908601348F7
:100CB000006840F001001149086000200F49083128
:100CC00008600E4800680E4908400C4908600D484D
:100CD000091D0860081F006820F48020091F0860B3
:100CE000002006490C310860FFF76AFF4FF00060F2
:100CF00001498039086010BD88ED00E000380240ED
:100D0000FFFFF6FE1030002410B502219E4800F0CF
:100D1000D3FA002849D002219B4800F0B2FA9B4840
:100D20000078012810D19A4800789A4908609648BE
:100D300000F0B6FA984908800221934800F0D6FAEC
:100D40000020924908701EE1904800780028FAD1EE
:100D50008F480078914908608B4800F0A1FA9049CB
:100D600008808E4800688B490968401A40F271215A
:100D700048438B49098801EB801087490988401A4C
:100D800088490860002083490860834908808349B6
:100D90000860834908807E49087000217A4800F085
:100DA000A5FA012079490870EDE00421764800F0A9
:100DB00083FA002849D00421734800F062FA7A4887
:100DC0000078012810D179480078794908606E4888
:100DD00000F069FA7749088002216B4800F08FFA29
:100DE000002071490870CEE06F4800780028AAD131
:100DF0006E48007870490860634800F054FA6F4903
:100E000008806D4800686A490968401A40F27121FB
:100E100048436A49098801EB801066490988401AED
:100E20006749086000206249086062490880624999
:100E30000860624908805D4908700021524800F04E
:100E40005EFA0120584908709DE008214E4800F0E4
:100E500033FA002849D008214B4800F012FA5948CB
:100E60000078012810D15848007858490860464851
:100E700000F01CFA564908800221434800F04CFA61
:100E80000020504908707EE04E48007800287AD152
:100E90004D4800784F4908603B4800F007FA4E493A
:100EA00008804C48006849490968401A40F271219D
:100EB00048434949098801EB801045490988401A8F
:100EC000464908600020414908604149088041497D
:100ED0000860414908803C49087000212A4800F018
:100EE0001BFA0120374908704DE01021264800F018
:100EF000E3F9002847D01021234800F0C2F9384810
:100F00000078012810D137480078374908601E481A
:100F100000F0CFF93549088002211B4800F009FA9A
:100F200000202F4908702EE02D48007858BB2D482E
:100F300000782F490860144800F0BBF92D4908805B
:100F40002B48006828490968401A40F2712148433B
:100F50002849098801EB801024490988401A26494C
:100F60000860002020490860204908802049086066
:100F7000204908801B4908700021034800F0D9F976
:100F800001201749087010BD000001408E000020AC
:100F90004C00002050000020540000205800002089
:100FA0005C000020300000208F0000204D00002059
:100FB0006000002064000020680000206C00002019
:100FC00034000020900000204E000020700000201F
:100FD00074000020780000207C00002038000020F1
:100FE000910000204F00002080000020840000209D
:100FF000880000208C0000203C00002010B501215A
:101000000E4800F059F9B8B101210C4800F039F947
:101010000B480078401C0A4908700A480078401CB8
:101020000849087008480078401C074908700748BC
:101030000078401C0549087010BD00000000014008
:101040004C0000204D0000204E0000204F000020EA
:1010500010B501210C4800F02FF901280FD1012112
:10106000094800F00EF909480068401C074908606B
:1010700007480068C0430749C1F8940202E0052010
:1010800000F060FB10BD00000004004024000020C0
:10109000940240420000404210B501214F4800F048
:1010A0000BF901286FD101214C4800F0EAF84C48B7
:1010B000007830B1012824D0022842D003281FD163
:1010C00088E0484890ED000AF1EE0C0AB4EEE00A20
:1010D000F1EE10FA05D244480078401C42490870ED
:1010E00002E00020404908703F480078042807DBF0
:1010F00000203D490870FFF773FA01203849087055
:1011000069E0384890ED000AF1EE0C0AB4EEE00A0E
:10111000F1EE10FA05DD35480078401C33490870BF
:1011200002E000203149087030480078042807DBCD
:1011300000202E490870FFF753FA02202849087052
:1011400049E02B48006840F29A21884206D129489C
:10115000007800EB800040002549086024480068C2
:10116000401E234908601F4890ED000AF1EE0C0A6A
:10117000B4EEE00AF1EE10FA06D21F480078401CE7
:101180001D49087003E027E000201B4908701A4839
:10119000007802280EDB00201749087015480078F7
:1011A00000EB8000400012490860FFF719FA0120A7
:1011B0000B4908700E48006858B90E48007800EBDB
:1011C000800040000A490860032005490870FFF7C5
:1011D00007FA00E000BF00BF10BD0000000800409B
:1011E00092000020200000209300002094000020A6
:1011F0004000002044000020950000207FB50546F7
:101200000C4601210420FFF7BBFB0295ADF804401A
:101210000020ADF80600ADF80C0001A90D4800F063
:1012200095F8012211460B4800F057F801210948B2
:1012300000F02AF81E208DF8000002208DF8010031
:1012400001208DF802008DF803006846FFF782F94F
:101250007FBD00000008004010B50121064800F0E5
:101260002BF8012804D10121034800F00AF802E01C
:10127000052000F067FA10BD000C0040CA4302824E
:101280007047CA430282704721B1028842F00102CE
:10129000028004E002884FF6FE731A400280704715
:1012A0000146486B70470146886B70470146C86B22
:1012B00070470146086C704730B502460020002395
:1012C0000024158A05EA0103958905EA010413B192
:1012D0000CB1012000E0002030BD1AB183890B431E
:1012E000838102E083898B43838170470A46002112
:1012F000018C4FF6FD7319401143018470470A4673
:101300000021018C4FF6DF7319404FF6FF7303EA9B
:1013100002131943018470470A460021018C4FF6DD
:10132000FF5319404FF6FF7303EA02231943018468
:1013300070470A460021018C4DF6FF7319404FF6A5
:10134000FF7303EA023319430184704700220288C5
:10135000184B98420ED0184B98420BD0B0F1804FEA
:1013600008D0164B984205D0154B984202D0154B29
:10137000984204D14FF68F731A404B881A43124B90
:10138000984207D0114B984204D04FF6FF431A40C1
:101390000B891A4302804B68C3620B880385054B97
:1013A000984202D0044B984201D18B7A03860123E4
:1013B00083827047000001400004014000040040A7
:1013C00000080040000C00400010004000140040E5
:1013D0000EB501210220FFF7D3FA6320ADF800001B
:1013E0004CF24F3001900020ADF80200ADF808003B
:1013F00069460448FFF7AAFF01210248FFF73EFFB4
:101400000EBD00000004004010B540F225511D48FB
:1014100000F08EF810B31B4800F044F9C4B21A482B
:10142000008800F40040C8B91748008800F48040E4
:1014300060B10A2C03D000201349088020E0124834
:10144000008840F400401049088019E00D2C06D1B6
:101450000D48008840F480400B49088010E00A489D
:101460000088C0F30D0009490C5407480088401C4F
:101470000549088008460088C72801DD002008804B
:1014800010BD000000100140140000209800002052
:1014900010B540F225511D4800F04AF810B31B4822
:1014A00000F000F9C4B21A48008800F40040C8B93E
:1014B0001748008800F4804060B10A2C03D0002057
:1014C0001349088020E01248008840F40040104989
:1014D000088019E00D2C06D10D48008840F48040AA
:1014E0000B49088010E00A480088C0F30D00094944
:1014F0000C5407480088401C0549088008460088AD
:10150000C72801DD0020088010BD00000044004015
:10151000180000206001002021B1828942F40052AD
:10152000828104E082894DF6FF731A408281704700
:1015300070B50246002400230025002040F66A16FC
:10154000B14200D100BFC1F3421501F01F030126D3
:1015500006FA03F3012D02D19689334006E0022DED
:1015600002D1168A334001E0968A33400C120126DC
:1015700006FA04F41688344013B10CB1012000E0DF
:10158000002070BDF0B50346002400260025002091
:1015900040F66A17B94200D100BF1846C1F34214A1
:1015A00001F01F06012707FA06F5012C01D10C30C6
:1015B00004E0022C01D1103000E014301AB10768A9
:1015C0002F43076002E00768AF430760F0BD0000EB
:1015D0002DE9FF4705460E460024A14600BFA04660
:1015E000B08900B100BF2C8A24F44054F088044331
:1015F0002C82AC8941F20C608443B0883189084365
:10160000718908430443AC81AC8A24F44074B089E6
:101610000443AC826846FFF7D3F92048854202D0E4
:101620001F48854202D1DDF80C9001E0DDF80890FA
:10163000A88900F4004040B109EBC90000EB091093
:1016400031684900B0FBF1F707E009EBC90000EB96
:10165000091031688900B0FBF1F76420B7FBF0F0A6
:1016600004012009642101FB1078A88900F40040DE
:1016700040B1322000EBC800B0FBF1F000F00700F1
:10168000044308E0322000EB08106421B0FBF1F0C5
:1016900000F00F0004432C81BDE8FF8700100140DB
:1016A0000014014001468888C0F308007047C1F368
:1016B00008028280704700BFFEE7000010B50446B4
:1016C0006FF00400FFF7D7FAE11704EB5171C1F393
:1016D000C701074A11701046007800EB4001C1EBCA
:1016E000C0104FF6FF7101EAC0000249088010BD2A
:1016F00010000020120000200146114A12884A43BF
:101700004FF0E0235A6100229A611A46126942F0B2
:1017100001021A6100BF4FF0E022106900F00102DF
:101720001AB100F48032002AF5D04FF0E02212699D
:1017300022F001024FF0E0231A6100229A61704703
:10174000120000200146114A12784A434FF0E0236C
:101750005A6100229A611A46126942F001021A6126
:1017600000BF4FF0E022106900F001021AB100F44E
:101770008032002AF5D04FF0E022126922F00102F7
:101780004FF0E0231A6100229A6170471000002098
:1017900010B54FF480711D48FEF74AFE4FF480717A
:1017A0001A48FEF747FE0A20FFF7CCFF4FF480717E
:1017B0001648FEF73DFE00201549086000BF4FF4B3
:1017C00000711248FEF72BFE0028F8D001211048C6
:1017D0002438FFF759FD00BF4FF400710B48FEF7A6
:1017E0001EFE0128F8D0002109482438FFF74CFDDF
:1017F0000748006807490860FEF780FD064880ED4D
:10180000000A3220FFF778FF10BD000000040240FC
:10181000240400401C000020200000201CB50121F1
:101820000846FFF79DF84FF48040009001208DF8A6
:10183000040000208DF8060002208DF8050069469E
:101840000148FEF781FD1CBD000002404FF4A0607E
:10185000FEF7BCFEFEF75AFEFEF714FEA820FFF7C7
:101860002DFF4FF4E13000F095F841F2873140F25E
:10187000CF70FFF7C3FCFEF7F5FEFFF7CFFFFFF7D2
:10188000A7FDFEF7D9FD5AE0FFF782FF2C4800784C
:1018900030B101280ED0022818D003284ED12BE0F9
:1018A00062212848FFF703FF27A203212820FEF723
:1018B000EFFF43E0FEF794FE62212248FFF7F7FEB8
:1018C00024A203212B20FEF7E3FF37E023A203210C
:1018D0002820FEF7DDFF23A204211A20FEF7D8FFFF
:1018E0002248006822490978B0FBF1F4224604211D
:1018F0004620FEF723FF21E01EA203212320FEF74E
:10190000C7FF4FF4FA70FFF7F7FE4FF4FA70FFF7D6
:10191000F3FE63210B48FFF7CAFEFEF761FE18A233
:1019200003211220FEF7B4FF4FF4FA70FFF7E4FE34
:10193000FEF756FE00200249087000BF00BFA3E773
:1019400092000020001001405075742050686F6EA6
:101950006500000052454144590000005741524E75
:10196000494E470054696D696E673A004000002097
:10197000440000205452414E534D49542E2E2E0007
:101980005452414E534D49542053554343455353AC
:101990000000000010B588B0044601210846FEF79B
:1019A000DFFF01211020FEF7FBFF0722092122485B
:1019B000FEF712FD07220A211F48FEF70DFD4FF426
:1019C000C060069002208DF81C008DF81D000020DC
:1019D0008DF81E0001208DF81F0006A91648FEF79D
:1019E000B3FC02940020ADF80C00ADF80E00ADF889
:1019F0001000ADF814000C20ADF8120002A90F4839
:101A0000FFF7E6FD01210D48FFF786FD012240F2B8
:101A100025510A48FFF7B6FD25208DF80400032064
:101A20008DF805008DF8060001208DF8070001A84B
:101A3000FEF790FD08B010BD00000240001001400C
:101A40004FF04070E1EE100A704700000000000007
:101A50000000002F000000000700070000147F14A2
:101A60007F1400242A7F2A120062640813230036A0
:101A70004955225000000503000000001C224100CF
:101A8000000041221C000014083E08140008083E13
:101A90000808000000A0600000080808080800000E
:101AA00060600000002010080402003E5149453EDD
:101AB0000000427F400000426151494600214145FB
:101AC0004B31001814127F10002745454539003C62
:101AD0004A49493000017109050300364949493630
:101AE00000064949291E000036360000000056361F
:101AF0000000000814224100001414141414000003
:101B00004122140800020151090600324959513E90
:101B1000007C1211127C007F49494936003E414148
:101B20004122007F4141221C007F49494941007FF9
:101B300009090901003E4149497A007F0808087FE8
:101B40000000417F4100002040413F01007F081418
:101B50002241007F40404040007F020C027F007F16
:101B60000408107F003E4141413E007F09090906FB
:101B7000003E4151215E007F09192946004649492E
:101B800049310001017F0101003F4040403F001FFB
:101B90002040201F003F4038403F0063140814637A
:101BA00000070870080700615149454300007F4164
:101BB0004100000204081020000041417F000004A1
:101BC00002010204004040404040000001020400C5
:101BD000002054545478007F48444438003844442A
:101BE000442000384444487F0038545454180008B6
:101BF0007E0901020018A4A4A47C007F08040478D4
:101C00000000447D4000004080847D00007F10285B
:101C100044000000417F4000007C04180478007CF0
:101C20000804047800384444443800FC2424241870
:101C30000018242418FC007C0804040800485454AC
:101C4000542000043F444020003C4040207C001CC5
:101C50002040201C003C4030403C004428102844D8
:101C6000001CA0A0A07C004464544C441414141420
:101C7000141400000000000000000000000000003C
:101C80000000000000F800000000000000333000F9
:101C9000000000100C06100C060000000000000000
:101CA000000040C07840C0784000043F04043F0476
:101CB0000400007088FC08300000001820FF211E7E
:101CC0000000F008F000E018000000211C031E21B5
:101CD0001E0000F00888700000001E212324192730
:101CE000211010160E00000000000000000000008F
:101CF0000000000000E018040200000000071820A7
:101D0000400000020418E000000000402018070016
:101D10000000404080F0804040000202010F0102BC
:101D20000200000000F0000000000101011F01019D
:101D30000100000000000000000080B07000000002
:101D4000000000000000000000000001010101018E
:101D50000101000000000000000000303000000021
:101D600000000000000080601804006018060100F8
:101D7000000000E010080810E000000F1020201004
:101D80000F00001010F8000000000020203F20206D
:101D90000000007008080888700000302824222104
:101DA00030000030088888483000001820202011BA
:101DB0000E000000C02010F8000000070424243F9B
:101DC000240000F808888808080000192120201144
:101DD0000E0000E0108888180000000F112020116C
:101DE0000E0000380808C83808000000003F000056
:101DF00000000070880808887000001C2221212241
:101E00001C0000E010080810E00000003122221140
:101E10000F00000000C0C0000000000000303000D3
:101E20000000000000800000000000008060000052
:101E3000000000008040201008000001020408108B
:101E4000200040404040404040000404040404049A
:101E50000400000810204080000000201008040248
:101E60000100007048080808F0000000003036014A
:101E70000000C030C828E810E00007182724231409
:101E80000B000000C038E0000000203C23020227C5
:101E9000382008F8888888700000203F2020201112
:101EA0000E00C0300808080838000718202020104D
:101EB000080008F808080810E000203F2020201043
:101EC0000F0008F88888E8081000203F2020232011
:101ED000180008F88888E8081000203F2000030058
:101EE0000000C03008080838000007182020221E13
:101EF000020008F808000008F808203F210101212D
:101F00003F20000808F8080800000020203F20209B
:101F1000000000000808F8080800C08080807F00EA
:101F2000000008F888C028180800203F2001263843
:101F3000200008F8080000000000203F202020209A
:101F4000300008F8F800F8F80800203F003F003F94
:101F5000200008F830C00008F808203F20000718CB
:101F60003F00E01008080810E0000F1020202010AB
:101F70000F0008F808080808F000203F21010101BF
:101F80000000E01008080810E0000F182424385062
:101F90004F0008F8888888887000203F2000030CD4
:101FA00030200070880808083800003820212122DD
:101FB0001C00180808F8080818000000203F20003E
:101FC000000008F808000008F808001F2020202062
:101FD0001F000878880000C83808000007380E0184
:101FE0000000F80800F80008F800033C0700073C70
:101FF0000300081868808068180820302C03032C20
:1020000030200838C800C83808000000203F2000F1
:10201000000010080808C8380800203826212020B1
:102020001800000000FE020202000000007F404095
:102030004000000C30C00000000000000001063825
:10204000C00000020202FE000000004040407F008D
:102050000000000004020202040000000000000072
:102060000000000000000000000080808080808070
:102070008080000202040000000000000000000058
:1020800000000000808080800000001924222222AD
:102090003F2008F8008080000000003F1120201140
:1020A0000E000000008080800000000E1120202023
:1020B0001100000000808088F800000E1120201020
:1020C0003F200000808080800000001F222222220A
:1020D0001300008080F0888888180020203F20208E
:1020E00000000000808080808000006B94949493B6
:1020F000600008F8008080800000203F2100002060
:102100003F2000809898000000000020203F202001
:102110000000000000809898000000C08080807F50
:10212000000008F8000080808000203F24022D304D
:102130002000000808F8000000000020203F2020B8
:1021400000008080808080808000203F20003F2031
:10215000003F8080008080800000203F2100002020
:102160003F200000808080800000001F2020202071
:102170001F00808000808000000080FFA1202011CF
:102180000E000000008080808000000E112020A042
:10219000FF80808080008080800020203F21200000
:1021A00001000000808080808000003324242424EB
:1021B0001900008080E0808000000000001F2020C7
:1021C00000008080000000808000001F2020201080
:1021D0003F20808080000080808000010E30080653
:1021E000010080800080008080800F300C030C3064
:1021F0000F0000808000808080000020312E0E3192
:102200002000808080000080808080818E70180691
:10221000010000808080808080000021302C2221FD
:10222000300000000000807C020200000000003F3F
:10223000404000000000FF00000000000000FF0020
:1022400000000002027C800000000040403F0000CF
:10225000000000060101020204040000000000006A
:102260000000000084220008000000209800000008
:10227000D40100081C23000898000020F00700008B
:10228000F001000800000000010203040102030441
:102290000607080900000000000000000000000020
:1022A000000000000000000000000000000000002E
:1022B000000000000000000000000000000000001E
:1022C000000000009A02000004010000010000006C
:1022D00000000000000000000000000000000000FE
:1022E00000000000000000000000000000000000EE
:1022F00000000000000000000000000000000000DE
:1023000000000000000000000000000000000000CD
:0C231000000001010101000000000000BD
:040000050800019955
:00000001FF
